{
  "_format": "hh-sol-artifact-1",
  "contractName": "CrowdFunding",
  "sourceName": "contracts/CrowdFunding.sol",
  "abi": [
    {
      "inputs": [],
      "stateMutability": "nonpayable",
      "type": "constructor"
    },
    {
      "anonymous": false,
      "inputs": [
        {
          "indexed": true,
          "internalType": "uint256",
          "name": "campaignId",
          "type": "uint256"
        },
        {
          "indexed": false,
          "internalType": "address",
          "name": "campaignCreator",
          "type": "address"
        },
        {
          "indexed": false,
          "internalType": "string",
          "name": "title",
          "type": "string"
        }
      ],
      "name": "CampaignCreated",
      "type": "event"
    },
    {
      "anonymous": false,
      "inputs": [
        {
          "indexed": true,
          "internalType": "uint256",
          "name": "campaignId",
          "type": "uint256"
        },
        {
          "indexed": false,
          "internalType": "address",
          "name": "campaignCreator",
          "type": "address"
        }
      ],
      "name": "CampaignDeleted",
      "type": "event"
    },
    {
      "anonymous": false,
      "inputs": [
        {
          "indexed": true,
          "internalType": "uint256",
          "name": "campaignId",
          "type": "uint256"
        },
        {
          "indexed": false,
          "internalType": "address",
          "name": "contributor",
          "type": "address"
        },
        {
          "indexed": false,
          "internalType": "uint256",
          "name": "amount",
          "type": "uint256"
        }
      ],
      "name": "ContributionMade",
      "type": "event"
    },
    {
      "anonymous": false,
      "inputs": [
        {
          "indexed": true,
          "internalType": "uint256",
          "name": "campaignId",
          "type": "uint256"
        },
        {
          "indexed": false,
          "internalType": "address",
          "name": "contributor",
          "type": "address"
        },
        {
          "indexed": false,
          "internalType": "uint256",
          "name": "amount",
          "type": "uint256"
        }
      ],
      "name": "RefundMade",
      "type": "event"
    },
    {
      "inputs": [
        {
          "internalType": "uint256",
          "name": "",
          "type": "uint256"
        }
      ],
      "name": "campaigns",
      "outputs": [
        {
          "internalType": "uint256",
          "name": "id",
          "type": "uint256"
        },
        {
          "internalType": "address",
          "name": "campaignCreator",
          "type": "address"
        },
        {
          "internalType": "string",
          "name": "title",
          "type": "string"
        },
        {
          "internalType": "string",
          "name": "description",
          "type": "string"
        },
        {
          "internalType": "uint256",
          "name": "goal",
          "type": "uint256"
        },
        {
          "internalType": "uint256",
          "name": "startsAt",
          "type": "uint256"
        },
        {
          "internalType": "uint256",
          "name": "endsAt",
          "type": "uint256"
        },
        {
          "internalType": "enum CrowdFunding.STATUS",
          "name": "status",
          "type": "uint8"
        },
        {
          "internalType": "uint256",
          "name": "totalContributions",
          "type": "uint256"
        }
      ],
      "stateMutability": "view",
      "type": "function"
    },
    {
      "inputs": [
        {
          "internalType": "uint256",
          "name": "campaignId",
          "type": "uint256"
        }
      ],
      "name": "contribute",
      "outputs": [],
      "stateMutability": "payable",
      "type": "function"
    },
    {
      "inputs": [
        {
          "internalType": "string",
          "name": "title",
          "type": "string"
        },
        {
          "internalType": "string",
          "name": "description",
          "type": "string"
        },
        {
          "internalType": "uint256",
          "name": "goal",
          "type": "uint256"
        },
        {
          "internalType": "uint256",
          "name": "endsAt",
          "type": "uint256"
        }
      ],
      "name": "createCampaign",
      "outputs": [],
      "stateMutability": "nonpayable",
      "type": "function"
    },
    {
      "inputs": [
        {
          "internalType": "uint256",
          "name": "campaignId",
          "type": "uint256"
        }
      ],
      "name": "deleteCampaign",
      "outputs": [],
      "stateMutability": "nonpayable",
      "type": "function"
    },
    {
      "inputs": [],
      "name": "getAllCampaigns",
      "outputs": [
        {
          "components": [
            {
              "internalType": "uint256",
              "name": "id",
              "type": "uint256"
            },
            {
              "internalType": "address",
              "name": "campaignCreator",
              "type": "address"
            },
            {
              "internalType": "string",
              "name": "title",
              "type": "string"
            },
            {
              "internalType": "string",
              "name": "description",
              "type": "string"
            },
            {
              "internalType": "uint256",
              "name": "goal",
              "type": "uint256"
            },
            {
              "internalType": "uint256",
              "name": "startsAt",
              "type": "uint256"
            },
            {
              "internalType": "uint256",
              "name": "endsAt",
              "type": "uint256"
            },
            {
              "internalType": "enum CrowdFunding.STATUS",
              "name": "status",
              "type": "uint8"
            },
            {
              "internalType": "uint256",
              "name": "totalContributions",
              "type": "uint256"
            },
            {
              "internalType": "address[]",
              "name": "contributors",
              "type": "address[]"
            },
            {
              "internalType": "uint256[]",
              "name": "contributionAmounts",
              "type": "uint256[]"
            }
          ],
          "internalType": "struct CrowdFunding.Campaign[]",
          "name": "",
          "type": "tuple[]"
        }
      ],
      "stateMutability": "view",
      "type": "function"
    },
    {
      "inputs": [
        {
          "internalType": "uint256",
          "name": "campaignId",
          "type": "uint256"
        }
      ],
      "name": "getCampaign",
      "outputs": [
        {
          "internalType": "uint256",
          "name": "id",
          "type": "uint256"
        },
        {
          "internalType": "address",
          "name": "campaignCreator",
          "type": "address"
        },
        {
          "internalType": "string",
          "name": "title",
          "type": "string"
        },
        {
          "internalType": "string",
          "name": "description",
          "type": "string"
        },
        {
          "internalType": "uint256",
          "name": "goal",
          "type": "uint256"
        },
        {
          "internalType": "uint256",
          "name": "startsAt",
          "type": "uint256"
        },
        {
          "internalType": "uint256",
          "name": "endsAt",
          "type": "uint256"
        },
        {
          "internalType": "enum CrowdFunding.STATUS",
          "name": "status",
          "type": "uint8"
        },
        {
          "internalType": "uint256",
          "name": "totalContributions",
          "type": "uint256"
        },
        {
          "internalType": "address[]",
          "name": "contributors",
          "type": "address[]"
        },
        {
          "internalType": "uint256[]",
          "name": "contributionAmounts",
          "type": "uint256[]"
        }
      ],
      "stateMutability": "view",
      "type": "function"
    },
    {
      "inputs": [],
      "name": "getLatestCampaigns",
      "outputs": [
        {
          "components": [
            {
              "internalType": "uint256",
              "name": "id",
              "type": "uint256"
            },
            {
              "internalType": "address",
              "name": "campaignCreator",
              "type": "address"
            },
            {
              "internalType": "string",
              "name": "title",
              "type": "string"
            },
            {
              "internalType": "string",
              "name": "description",
              "type": "string"
            },
            {
              "internalType": "uint256",
              "name": "goal",
              "type": "uint256"
            },
            {
              "internalType": "uint256",
              "name": "startsAt",
              "type": "uint256"
            },
            {
              "internalType": "uint256",
              "name": "endsAt",
              "type": "uint256"
            },
            {
              "internalType": "enum CrowdFunding.STATUS",
              "name": "status",
              "type": "uint8"
            },
            {
              "internalType": "uint256",
              "name": "totalContributions",
              "type": "uint256"
            },
            {
              "internalType": "address[]",
              "name": "contributors",
              "type": "address[]"
            },
            {
              "internalType": "uint256[]",
              "name": "contributionAmounts",
              "type": "uint256[]"
            }
          ],
          "internalType": "struct CrowdFunding.Campaign[]",
          "name": "",
          "type": "tuple[]"
        }
      ],
      "stateMutability": "view",
      "type": "function"
    },
    {
      "inputs": [],
      "name": "owner",
      "outputs": [
        {
          "internalType": "address",
          "name": "",
          "type": "address"
        }
      ],
      "stateMutability": "view",
      "type": "function"
    },
    {
      "inputs": [
        {
          "internalType": "uint256",
          "name": "campaignId",
          "type": "uint256"
        }
      ],
      "name": "processSuccessfulCampaign",
      "outputs": [],
      "stateMutability": "nonpayable",
      "type": "function"
    },
    {
      "inputs": [
        {
          "internalType": "uint256",
          "name": "campaignId",
          "type": "uint256"
        }
      ],
      "name": "processUnsuccessfulCampaign",
      "outputs": [],
      "stateMutability": "nonpayable",
      "type": "function"
    }
  ],
  "bytecode": "0x60a0604052600160005534801561001557600080fd5b503373ffffffffffffffffffffffffffffffffffffffff1660808173ffffffffffffffffffffffffffffffffffffffff1681525050608051612eed6100656000396000610e0b0152612eed6000f3fe6080604052600436106100915760003560e01c806386cdf6041161005957806386cdf6041461019d5780638da5cb5b146101c8578063a318f269146101f3578063b4d40af11461021c578063c1cbbca71461024757610091565b8063141961bc1461009657806337d03c09146100db5780635598f8cc14610104578063759701931461014b578063813b12ea14610174575b600080fd5b3480156100a257600080fd5b506100bd60048036038101906100b89190611bec565b610263565b6040516100d299989796959493929190611d70565b60405180910390f35b3480156100e757600080fd5b5061010260048036038101906100fd9190611bec565b6103fe565b005b34801561011057600080fd5b5061012b60048036038101906101269190611bec565b61050f565b6040516101429b9a99989796959493929190611f87565b60405180910390f35b34801561015757600080fd5b50610172600480360381019061016d9190611bec565b61087f565b005b34801561018057600080fd5b5061019b60048036038101906101969190611bec565b610973565b005b3480156101a957600080fd5b506101b2610adc565b6040516101bf919061234b565b60405180910390f35b3480156101d457600080fd5b506101dd610e09565b6040516101ea919061236d565b60405180910390f35b3480156101ff57600080fd5b5061021a600480360381019061021591906124bd565b610e2d565b005b34801561022857600080fd5b506102316111e8565b60405161023e919061234b565b60405180910390f35b610261600480360381019061025c9190611bec565b611626565b005b6001818154811061027357600080fd5b90600052602060002090600b02016000915090508060000154908060010160009054906101000a900473ffffffffffffffffffffffffffffffffffffffff16908060020180546102c29061258b565b80601f01602080910402602001604051908101604052809291908181526020018280546102ee9061258b565b801561033b5780601f106103105761010080835404028352916020019161033b565b820191906000526020600020905b81548152906001019060200180831161031e57829003601f168201915b5050505050908060030180546103509061258b565b80601f016020809104026020016040519081016040528092919081815260200182805461037c9061258b565b80156103c95780601f1061039e576101008083540402835291602001916103c9565b820191906000526020600020905b8154815290600101906020018083116103ac57829003601f168201915b5050505050908060040154908060050154908060060154908060070160009054906101000a900460ff16908060080154905089565b600060018281548110610414576104136125bc565b5b90600052602060002090600b020190506002600381111561043857610437611cf9565b5b8160070160009054906101000a900460ff16600381111561045c5761045b611cf9565b5b1461049c576040517f08c379a000000000000000000000000000000000000000000000000000000000815260040161049390612637565b60405180910390fd5b8060010160009054906101000a900473ffffffffffffffffffffffffffffffffffffffff1673ffffffffffffffffffffffffffffffffffffffff166108fc82600801549081150290604051600060405180830381858888f1935050505015801561050a573d6000803e3d6000fd5b505050565b6000806060806000806000806000606080600060018d81548110610536576105356125bc565b5b90600052602060002090600b020160405180610160016040529081600082015481526020016001820160009054906101000a900473ffffffffffffffffffffffffffffffffffffffff1673ffffffffffffffffffffffffffffffffffffffff1673ffffffffffffffffffffffffffffffffffffffff1681526020016002820180546105c09061258b565b80601f01602080910402602001604051908101604052809291908181526020018280546105ec9061258b565b80156106395780601f1061060e57610100808354040283529160200191610639565b820191906000526020600020905b81548152906001019060200180831161061c57829003601f168201915b505050505081526020016003820180546106529061258b565b80601f016020809104026020016040519081016040528092919081815260200182805461067e9061258b565b80156106cb5780601f106106a0576101008083540402835291602001916106cb565b820191906000526020600020905b8154815290600101906020018083116106ae57829003601f168201915b505050505081526020016004820154815260200160058201548152602001600682015481526020016007820160009054906101000a900460ff16600381111561071757610716611cf9565b5b600381111561072957610728611cf9565b5b815260200160088201548152602001600982018054806020026020016040519081016040528092919081815260200182805480156107bc57602002820191906000526020600020905b8160009054906101000a900473ffffffffffffffffffffffffffffffffffffffff1673ffffffffffffffffffffffffffffffffffffffff1681526020019060010190808311610772575b50505050508152602001600a820180548060200260200160405190810160405280929190818152602001828054801561081457602002820191906000526020600020905b815481526020019060010190808311610800575b5050505050815250509050806000015181602001518260400151836060015184608001518560a001518660c001518760e001518861010001518961012001518a61014001519b509b509b509b509b509b509b509b509b509b509b505091939597999b90929496989a50565b600060018281548110610895576108946125bc565b5b90600052602060002090600b020190503373ffffffffffffffffffffffffffffffffffffffff168160010160009054906101000a900473ffffffffffffffffffffffffffffffffffffffff1673ffffffffffffffffffffffffffffffffffffffff161461090157600080fd5b61090a826118d4565b60018160070160006101000a81548160ff0219169083600381111561093257610931611cf9565b5b0217905550817f8b2c4705c247d8d9f05477ce4c82c82947d7b6274633d30c3f1a0e07a66d4bb633604051610967919061236d565b60405180910390a25050565b600060018281548110610989576109886125bc565b5b90600052602060002090600b02019050600060038111156109ad576109ac611cf9565b5b8160070160009054906101000a900460ff1660038111156109d1576109d0611cf9565b5b14610a11576040517f08c379a0000000000000000000000000000000000000000000000000000000008152600401610a08906126a3565b60405180910390fd5b8060060154421015610a58576040517f08c379a0000000000000000000000000000000000000000000000000000000008152600401610a4f9061270f565b60405180910390fd5b8060040154816008015410610aa2576040517f08c379a0000000000000000000000000000000000000000000000000000000008152600401610a99906127a1565b60405180910390fd5b610aab826118d4565b60038160070160006101000a81548160ff02191690836003811115610ad357610ad2611cf9565b5b02179055505050565b60606001805480602002602001604051908101604052809291908181526020016000905b82821015610e0057838290600052602060002090600b020160405180610160016040529081600082015481526020016001820160009054906101000a900473ffffffffffffffffffffffffffffffffffffffff1673ffffffffffffffffffffffffffffffffffffffff1673ffffffffffffffffffffffffffffffffffffffff168152602001600282018054610b949061258b565b80601f0160208091040260200160405190810160405280929190818152602001828054610bc09061258b565b8015610c0d5780601f10610be257610100808354040283529160200191610c0d565b820191906000526020600020905b815481529060010190602001808311610bf057829003601f168201915b50505050508152602001600382018054610c269061258b565b80601f0160208091040260200160405190810160405280929190818152602001828054610c529061258b565b8015610c9f5780601f10610c7457610100808354040283529160200191610c9f565b820191906000526020600020905b815481529060010190602001808311610c8257829003601f168201915b505050505081526020016004820154815260200160058201548152602001600682015481526020016007820160009054906101000a900460ff166003811115610ceb57610cea611cf9565b5b6003811115610cfd57610cfc611cf9565b5b81526020016008820154815260200160098201805480602002602001604051908101604052809291908181526020018280548015610d9057602002820191906000526020600020905b8160009054906101000a900473ffffffffffffffffffffffffffffffffffffffff1673ffffffffffffffffffffffffffffffffffffffff1681526020019060010190808311610d46575b50505050508152602001600a8201805480602002602001604051908101604052809291908181526020018280548015610de857602002820191906000526020600020905b815481526020019060010190808311610dd4575b50505050508152505081526020019060010190610b00565b50505050905090565b7f000000000000000000000000000000000000000000000000000000000000000081565b6000845111610e71576040517f08c379a0000000000000000000000000000000000000000000000000000000008152600401610e689061280d565b60405180910390fd5b6000835111610eb5576040517f08c379a0000000000000000000000000000000000000000000000000000000008152600401610eac90612879565b60405180910390fd5b60008211610ef8576040517f08c379a0000000000000000000000000000000000000000000000000000000008152600401610eef906128e5565b60405180910390fd5b428111610f3a576040517f08c379a0000000000000000000000000000000000000000000000000000000008152600401610f3190612977565b60405180910390fd5b600160405180610160016040528060005481526020013373ffffffffffffffffffffffffffffffffffffffff16815260200186815260200185815260200184815260200142815260200183815260200160006003811115610f9e57610f9d611cf9565b5b815260200160008152602001600067ffffffffffffffff811115610fc557610fc4612392565b5b604051908082528060200260200182016040528015610ff35781602001602082028036833780820191505090505b508152602001600067ffffffffffffffff81111561101457611013612392565b5b6040519080825280602002602001820160405280156110425781602001602082028036833780820191505090505b5081525090806001815401808255809150506001900390600052602060002090600b02016000909190919091506000820151816000015560208201518160010160006101000a81548173ffffffffffffffffffffffffffffffffffffffff021916908373ffffffffffffffffffffffffffffffffffffffff16021790555060408201518160020190816110d59190612b43565b5060608201518160030190816110eb9190612b43565b506080820151816004015560a0820151816005015560c0820151816006015560e08201518160070160006101000a81548160ff0219169083600381111561113557611134611cf9565b5b02179055506101008201518160080155610120820151816009019080519060200190611162929190611a2c565b5061014082015181600a019080519060200190611180929190611ab6565b50505060016000546111929190612c44565b7fc04c663886cae794dc52158f70fe6c8ee3b0140d4f48647282f9b693ff688a6533866040516111c3929190612c78565b60405180910390a26000808154809291906111dd90612ca8565b919050555050505050565b6060600060018054905011611232576040517f08c379a000000000000000000000000000000000000000000000000000000000815260040161122990612d3c565b60405180910390fd5b600060036001805490501161124857600061125b565b600360018054905061125a9190612c44565b5b90506000816001805490506112709190612c44565b905060008167ffffffffffffffff81111561128e5761128d612392565b5b6040519080825280602002602001820160405280156112c757816020015b6112b4611b03565b8152602001906001900390816112ac5790505b50905060005b8281101561161c57600181600180805490506112e99190612c44565b6112f39190612c44565b81548110611304576113036125bc565b5b90600052602060002090600b020160405180610160016040529081600082015481526020016001820160009054906101000a900473ffffffffffffffffffffffffffffffffffffffff1673ffffffffffffffffffffffffffffffffffffffff1673ffffffffffffffffffffffffffffffffffffffff16815260200160028201805461138e9061258b565b80601f01602080910402602001604051908101604052809291908181526020018280546113ba9061258b565b80156114075780601f106113dc57610100808354040283529160200191611407565b820191906000526020600020905b8154815290600101906020018083116113ea57829003601f168201915b505050505081526020016003820180546114209061258b565b80601f016020809104026020016040519081016040528092919081815260200182805461144c9061258b565b80156114995780601f1061146e57610100808354040283529160200191611499565b820191906000526020600020905b81548152906001019060200180831161147c57829003601f168201915b505050505081526020016004820154815260200160058201548152602001600682015481526020016007820160009054906101000a900460ff1660038111156114e5576114e4611cf9565b5b60038111156114f7576114f6611cf9565b5b8152602001600882015481526020016009820180548060200260200160405190810160405280929190818152602001828054801561158a57602002820191906000526020600020905b8160009054906101000a900473ffffffffffffffffffffffffffffffffffffffff1673ffffffffffffffffffffffffffffffffffffffff1681526020019060010190808311611540575b50505050508152602001600a82018054806020026020016040519081016040528092919081815260200182805480156115e257602002820191906000526020600020905b8154815260200190600101908083116115ce575b5050505050815250508282815181106115fe576115fd6125bc565b5b6020026020010181905250808061161490612ca8565b9150506112cd565b5080935050505090565b600260009054906101000a900460ff1615611676576040517f08c379a000000000000000000000000000000000000000000000000000000000815260040161166d90612da8565b60405180910390fd5b6001600260006101000a81548160ff0219169083151502179055506000600182815481106116a7576116a66125bc565b5b90600052602060002090600b02019050600034116116fa576040517f08c379a00000000000000000000000000000000000000000000000000000000081526004016116f190612e3a565b60405180910390fd5b6000816008015482600401546117109190612c44565b9050803411611739573482600801600082825461172d9190612e5a565b925050819055506117ea565b600081346117479190612c44565b90503373ffffffffffffffffffffffffffffffffffffffff166108fc829081150290604051600060405180830381858888f1935050505015801561178f573d6000803e3d6000fd5b50818360080160008282546117a49190612e5a565b9250508190555082600401548360080154106117e85760028360070160006101000a81548160ff021916908360038111156117e2576117e1611cf9565b5b02179055505b505b81600901339080600181540180825580915050600190039060005260206000200160009091909190916101000a81548173ffffffffffffffffffffffffffffffffffffffff021916908373ffffffffffffffffffffffffffffffffffffffff16021790555081600a01349080600181540180825580915050600190039060005260206000200160009091909190915055827f0a4a91237423e0a1766a761c7cb029311d8b95d6b1b81db1b949a70c98b4e08e33346040516118ac929190612e8e565b60405180910390a250506000600260006101000a81548160ff02191690831515021790555050565b6000600182815481106118ea576118e96125bc565b5b90600052602060002090600b0201905060005b8160090180549050811015611a27576000826009018281548110611924576119236125bc565b5b9060005260206000200160009054906101000a900473ffffffffffffffffffffffffffffffffffffffff169050600083600a018381548110611969576119686125bc565b5b906000526020600020015490508173ffffffffffffffffffffffffffffffffffffffff166108fc829081150290604051600060405180830381858888f193505050501580156119bc573d6000803e3d6000fd5b50808460080160008282546119d19190612c44565b92505081905550847fd8e3c6fa99e763470c20c330c3264b60d68113ff301d4bde289d32ae0b08a3038383604051611a0a929190612e8e565b60405180910390a250508080611a1f90612ca8565b9150506118fd565b505050565b828054828255906000526020600020908101928215611aa5579160200282015b82811115611aa45782518260006101000a81548173ffffffffffffffffffffffffffffffffffffffff021916908373ffffffffffffffffffffffffffffffffffffffff16021790555091602001919060010190611a4c565b5b509050611ab29190611b85565b5090565b828054828255906000526020600020908101928215611af2579160200282015b82811115611af1578251825591602001919060010190611ad6565b5b509050611aff9190611b85565b5090565b60405180610160016040528060008152602001600073ffffffffffffffffffffffffffffffffffffffff168152602001606081526020016060815260200160008152602001600081526020016000815260200160006003811115611b6a57611b69611cf9565b5b81526020016000815260200160608152602001606081525090565b5b80821115611b9e576000816000905550600101611b86565b5090565b6000604051905090565b600080fd5b600080fd5b6000819050919050565b611bc981611bb6565b8114611bd457600080fd5b50565b600081359050611be681611bc0565b92915050565b600060208284031215611c0257611c01611bac565b5b6000611c1084828501611bd7565b91505092915050565b611c2281611bb6565b82525050565b600073ffffffffffffffffffffffffffffffffffffffff82169050919050565b6000611c5382611c28565b9050919050565b611c6381611c48565b82525050565b600081519050919050565b600082825260208201905092915050565b60005b83811015611ca3578082015181840152602081019050611c88565b60008484015250505050565b6000601f19601f8301169050919050565b6000611ccb82611c69565b611cd58185611c74565b9350611ce5818560208601611c85565b611cee81611caf565b840191505092915050565b7f4e487b7100000000000000000000000000000000000000000000000000000000600052602160045260246000fd5b60048110611d3957611d38611cf9565b5b50565b6000819050611d4a82611d28565b919050565b6000611d5a82611d3c565b9050919050565b611d6a81611d4f565b82525050565b600061012082019050611d86600083018c611c19565b611d93602083018b611c5a565b8181036040830152611da5818a611cc0565b90508181036060830152611db98189611cc0565b9050611dc86080830188611c19565b611dd560a0830187611c19565b611de260c0830186611c19565b611def60e0830185611d61565b611dfd610100830184611c19565b9a9950505050505050505050565b600081519050919050565b600082825260208201905092915050565b6000819050602082019050919050565b611e4081611c48565b82525050565b6000611e528383611e37565b60208301905092915050565b6000602082019050919050565b6000611e7682611e0b565b611e808185611e16565b9350611e8b83611e27565b8060005b83811015611ebc578151611ea38882611e46565b9750611eae83611e5e565b925050600181019050611e8f565b5085935050505092915050565b600081519050919050565b600082825260208201905092915050565b6000819050602082019050919050565b611efe81611bb6565b82525050565b6000611f108383611ef5565b60208301905092915050565b6000602082019050919050565b6000611f3482611ec9565b611f3e8185611ed4565b9350611f4983611ee5565b8060005b83811015611f7a578151611f618882611f04565b9750611f6c83611f1c565b925050600181019050611f4d565b5085935050505092915050565b600061016082019050611f9d600083018e611c19565b611faa602083018d611c5a565b8181036040830152611fbc818c611cc0565b90508181036060830152611fd0818b611cc0565b9050611fdf608083018a611c19565b611fec60a0830189611c19565b611ff960c0830188611c19565b61200660e0830187611d61565b612014610100830186611c19565b8181036101208301526120278185611e6b565b905081810361014083015261203c8184611f29565b90509c9b505050505050505050505050565b600081519050919050565b600082825260208201905092915050565b6000819050602082019050919050565b600082825260208201905092915050565b600061209682611c69565b6120a0818561207a565b93506120b0818560208601611c85565b6120b981611caf565b840191505092915050565b6120cd81611d4f565b82525050565b600082825260208201905092915050565b60006120ef82611e0b565b6120f981856120d3565b935061210483611e27565b8060005b8381101561213557815161211c8882611e46565b975061212783611e5e565b925050600181019050612108565b5085935050505092915050565b600082825260208201905092915050565b600061215e82611ec9565b6121688185612142565b935061217383611ee5565b8060005b838110156121a457815161218b8882611f04565b975061219683611f1c565b925050600181019050612177565b5085935050505092915050565b6000610160830160008301516121ca6000860182611ef5565b5060208301516121dd6020860182611e37565b50604083015184820360408601526121f5828261208b565b9150506060830151848203606086015261220f828261208b565b91505060808301516122246080860182611ef5565b5060a083015161223760a0860182611ef5565b5060c083015161224a60c0860182611ef5565b5060e083015161225d60e08601826120c4565b50610100830151612272610100860182611ef5565b5061012083015184820361012086015261228c82826120e4565b9150506101408301518482036101408601526122a88282612153565b9150508091505092915050565b60006122c183836121b1565b905092915050565b6000602082019050919050565b60006122e18261204e565b6122eb8185612059565b9350836020820285016122fd8561206a565b8060005b85811015612339578484038952815161231a85826122b5565b9450612325836122c9565b925060208a01995050600181019050612301565b50829750879550505050505092915050565b6000602082019050818103600083015261236581846122d6565b905092915050565b60006020820190506123826000830184611c5a565b92915050565b600080fd5b600080fd5b7f4e487b7100000000000000000000000000000000000000000000000000000000600052604160045260246000fd5b6123ca82611caf565b810181811067ffffffffffffffff821117156123e9576123e8612392565b5b80604052505050565b60006123fc611ba2565b905061240882826123c1565b919050565b600067ffffffffffffffff82111561242857612427612392565b5b61243182611caf565b9050602081019050919050565b82818337600083830152505050565b600061246061245b8461240d565b6123f2565b90508281526020810184848401111561247c5761247b61238d565b5b61248784828561243e565b509392505050565b600082601f8301126124a4576124a3612388565b5b81356124b484826020860161244d565b91505092915050565b600080600080608085870312156124d7576124d6611bac565b5b600085013567ffffffffffffffff8111156124f5576124f4611bb1565b5b6125018782880161248f565b945050602085013567ffffffffffffffff81111561252257612521611bb1565b5b61252e8782880161248f565b935050604061253f87828801611bd7565b925050606061255087828801611bd7565b91505092959194509250565b7f4e487b7100000000000000000000000000000000000000000000000000000000600052602260045260246000fd5b600060028204905060018216806125a357607f821691505b6020821081036125b6576125b561255c565b5b50919050565b7f4e487b7100000000000000000000000000000000000000000000000000000000600052603260045260246000fd5b7f43616d706169676e206973206e6f74207375636365737366756c000000000000600082015250565b6000612621601a83611c74565b915061262c826125eb565b602082019050919050565b6000602082019050818103600083015261265081612614565b9050919050565b7f43616d706169676e206973206e6f7420696e2061637469766520737461746500600082015250565b600061268d601f83611c74565b915061269882612657565b602082019050919050565b600060208201905081810360008301526126bc81612680565b9050919050565b7f43616d706169676e206973206e6f7420796574206f7665720000000000000000600082015250565b60006126f9601883611c74565b9150612704826126c3565b602082019050919050565b60006020820190508181036000830152612728816126ec565b9050919050565b7f43616d706169676e20686173207375636365737366756c6c792072656163686560008201527f642069747320676f616c00000000000000000000000000000000000000000000602082015250565b600061278b602a83611c74565b91506127968261272f565b604082019050919050565b600060208201905081810360008301526127ba8161277e565b9050919050565b7f5469746c65206d757374206e6f7420626520656d707479000000000000000000600082015250565b60006127f7601783611c74565b9150612802826127c1565b602082019050919050565b60006020820190508181036000830152612826816127ea565b9050919050565b7f4465736372697074696f6e206d757374206e6f7420626520656d707479000000600082015250565b6000612863601d83611c74565b915061286e8261282d565b602082019050919050565b6000602082019050818103600083015261289281612856565b9050919050565b7f476f616c206d7573742062652067726561746572207468616e207a65726f0000600082015250565b60006128cf601e83611c74565b91506128da82612899565b602082019050919050565b600060208201905081810360008301526128fe816128c2565b9050919050565b7f456e64732074696d65206d7573742062652067726561746572207468616e207460008201527f68652063757272656e742074696d650000000000000000000000000000000000602082015250565b6000612961602f83611c74565b915061296c82612905565b604082019050919050565b6000602082019050818103600083015261299081612954565b9050919050565b60008190508160005260206000209050919050565b60006020601f8301049050919050565b600082821b905092915050565b6000600883026129f97fffffffffffffffffffffffffffffffffffffffffffffffffffffffffffffffff826129bc565b612a0386836129bc565b95508019841693508086168417925050509392505050565b6000819050919050565b6000612a40612a3b612a3684611bb6565b612a1b565b611bb6565b9050919050565b6000819050919050565b612a5a83612a25565b612a6e612a6682612a47565b8484546129c9565b825550505050565b600090565b612a83612a76565b612a8e818484612a51565b505050565b5b81811015612ab257612aa7600082612a7b565b600181019050612a94565b5050565b601f821115612af757612ac881612997565b612ad1846129ac565b81016020851015612ae0578190505b612af4612aec856129ac565b830182612a93565b50505b505050565b600082821c905092915050565b6000612b1a60001984600802612afc565b1980831691505092915050565b6000612b338383612b09565b9150826002028217905092915050565b612b4c82611c69565b67ffffffffffffffff811115612b6557612b64612392565b5b612b6f825461258b565b612b7a828285612ab6565b600060209050601f831160018114612bad5760008415612b9b578287015190505b612ba58582612b27565b865550612c0d565b601f198416612bbb86612997565b60005b82811015612be357848901518255600182019150602085019450602081019050612bbe565b86831015612c005784890151612bfc601f891682612b09565b8355505b6001600288020188555050505b505050505050565b7f4e487b7100000000000000000000000000000000000000000000000000000000600052601160045260246000fd5b6000612c4f82611bb6565b9150612c5a83611bb6565b9250828203905081811115612c7257612c71612c15565b5b92915050565b6000604082019050612c8d6000830185611c5a565b8181036020830152612c9f8184611cc0565b90509392505050565b6000612cb382611bb6565b91507fffffffffffffffffffffffffffffffffffffffffffffffffffffffffffffffff8203612ce557612ce4612c15565b5b600182019050919050565b7f4e6f2063616d706169676e7320666f756e642e00000000000000000000000000600082015250565b6000612d26601383611c74565b9150612d3182612cf0565b602082019050919050565b60006020820190508181036000830152612d5581612d19565b9050919050565b7f5265656e7472616e742063616c6c000000000000000000000000000000000000600082015250565b6000612d92600e83611c74565b9150612d9d82612d5c565b602082019050919050565b60006020820190508181036000830152612dc181612d85565b9050919050565b7f436f6e747269627574696f6e20616d6f756e74206d757374206265206772656160008201527f746572207468616e207a65726f00000000000000000000000000000000000000602082015250565b6000612e24602d83611c74565b9150612e2f82612dc8565b604082019050919050565b60006020820190508181036000830152612e5381612e17565b9050919050565b6000612e6582611bb6565b9150612e7083611bb6565b9250828201905080821115612e8857612e87612c15565b5b92915050565b6000604082019050612ea36000830185611c5a565b612eb06020830184611c19565b939250505056fea2646970667358221220c5df149238431fa77871579bff7e14e1c4e6ef964c4a507c7b26287df59b9b1d64736f6c63430008130033",
  "linkReferences": {},
  "deployedLinkReferences": {}
}