{
  "_format": "hh-sol-artifact-1",
  "contractName": "CrowdFunding",
  "sourceName": "contracts/CrowdFunding.sol",
  "abi": [
    {
      "inputs": [],
      "stateMutability": "nonpayable",
      "type": "constructor"
    },
    {
      "anonymous": false,
      "inputs": [
        {
          "indexed": true,
          "internalType": "uint256",
          "name": "campaignId",
          "type": "uint256"
        },
        {
          "indexed": false,
          "internalType": "address",
          "name": "campaignCreator",
          "type": "address"
        },
        {
          "indexed": false,
          "internalType": "string",
          "name": "title",
          "type": "string"
        },
        {
          "indexed": false,
          "internalType": "enum CrowdFunding.STATUS",
          "name": "status",
          "type": "uint8"
        }
      ],
      "name": "CampaignCreated",
      "type": "event"
    },
    {
      "anonymous": false,
      "inputs": [
        {
          "indexed": true,
          "internalType": "uint256",
          "name": "campaignId",
          "type": "uint256"
        },
        {
          "indexed": false,
          "internalType": "address",
          "name": "campaignCreator",
          "type": "address"
        },
        {
          "indexed": false,
          "internalType": "enum CrowdFunding.STATUS",
          "name": "status",
          "type": "uint8"
        }
      ],
      "name": "CampaignDeleted",
      "type": "event"
    },
    {
      "anonymous": false,
      "inputs": [
        {
          "indexed": true,
          "internalType": "uint256",
          "name": "campaignId",
          "type": "uint256"
        },
        {
          "indexed": false,
          "internalType": "address",
          "name": "contributor",
          "type": "address"
        },
        {
          "indexed": false,
          "internalType": "uint256",
          "name": "amount",
          "type": "uint256"
        }
      ],
      "name": "ContributionMade",
      "type": "event"
    },
    {
      "anonymous": false,
      "inputs": [
        {
          "indexed": true,
          "internalType": "uint256",
          "name": "campaignId",
          "type": "uint256"
        },
        {
          "indexed": false,
          "internalType": "address",
          "name": "contributor",
          "type": "address"
        },
        {
          "indexed": false,
          "internalType": "uint256",
          "name": "amount",
          "type": "uint256"
        }
      ],
      "name": "RefundMade",
      "type": "event"
    },
    {
      "inputs": [
        {
          "internalType": "uint256",
          "name": "",
          "type": "uint256"
        }
      ],
      "name": "campaigns",
      "outputs": [
        {
          "internalType": "uint256",
          "name": "id",
          "type": "uint256"
        },
        {
          "internalType": "address",
          "name": "campaignCreator",
          "type": "address"
        },
        {
          "internalType": "string",
          "name": "title",
          "type": "string"
        },
        {
          "internalType": "string",
          "name": "description",
          "type": "string"
        },
        {
          "internalType": "uint256",
          "name": "goal",
          "type": "uint256"
        },
        {
          "internalType": "uint256",
          "name": "startsAt",
          "type": "uint256"
        },
        {
          "internalType": "uint256",
          "name": "endsAt",
          "type": "uint256"
        },
        {
          "internalType": "enum CrowdFunding.STATUS",
          "name": "status",
          "type": "uint8"
        },
        {
          "internalType": "uint256",
          "name": "totalContributions",
          "type": "uint256"
        }
      ],
      "stateMutability": "view",
      "type": "function"
    },
    {
      "inputs": [
        {
          "internalType": "uint256",
          "name": "campaignId",
          "type": "uint256"
        }
      ],
      "name": "contribute",
      "outputs": [],
      "stateMutability": "payable",
      "type": "function"
    },
    {
      "inputs": [
        {
          "internalType": "string",
          "name": "title",
          "type": "string"
        },
        {
          "internalType": "string",
          "name": "description",
          "type": "string"
        },
        {
          "internalType": "uint256",
          "name": "goal",
          "type": "uint256"
        },
        {
          "internalType": "uint256",
          "name": "endsAt",
          "type": "uint256"
        }
      ],
      "name": "createCampaign",
      "outputs": [],
      "stateMutability": "nonpayable",
      "type": "function"
    },
    {
      "inputs": [
        {
          "internalType": "uint256",
          "name": "campaignId",
          "type": "uint256"
        }
      ],
      "name": "deleteCampaign",
      "outputs": [],
      "stateMutability": "nonpayable",
      "type": "function"
    },
    {
      "inputs": [],
      "name": "getAllCampaigns",
      "outputs": [
        {
          "components": [
            {
              "internalType": "uint256",
              "name": "id",
              "type": "uint256"
            },
            {
              "internalType": "address",
              "name": "campaignCreator",
              "type": "address"
            },
            {
              "internalType": "string",
              "name": "title",
              "type": "string"
            },
            {
              "internalType": "string",
              "name": "description",
              "type": "string"
            },
            {
              "internalType": "uint256",
              "name": "goal",
              "type": "uint256"
            },
            {
              "internalType": "uint256",
              "name": "startsAt",
              "type": "uint256"
            },
            {
              "internalType": "uint256",
              "name": "endsAt",
              "type": "uint256"
            },
            {
              "internalType": "enum CrowdFunding.STATUS",
              "name": "status",
              "type": "uint8"
            },
            {
              "internalType": "uint256",
              "name": "totalContributions",
              "type": "uint256"
            },
            {
              "internalType": "address[]",
              "name": "contributors",
              "type": "address[]"
            },
            {
              "internalType": "uint256[]",
              "name": "contributionAmounts",
              "type": "uint256[]"
            }
          ],
          "internalType": "struct CrowdFunding.Campaign[]",
          "name": "",
          "type": "tuple[]"
        }
      ],
      "stateMutability": "view",
      "type": "function"
    },
    {
      "inputs": [
        {
          "internalType": "uint256",
          "name": "campaignId",
          "type": "uint256"
        }
      ],
      "name": "getCampaign",
      "outputs": [
        {
          "internalType": "uint256",
          "name": "id",
          "type": "uint256"
        },
        {
          "internalType": "address",
          "name": "campaignCreator",
          "type": "address"
        },
        {
          "internalType": "string",
          "name": "title",
          "type": "string"
        },
        {
          "internalType": "string",
          "name": "description",
          "type": "string"
        },
        {
          "internalType": "uint256",
          "name": "goal",
          "type": "uint256"
        },
        {
          "internalType": "uint256",
          "name": "startsAt",
          "type": "uint256"
        },
        {
          "internalType": "uint256",
          "name": "endsAt",
          "type": "uint256"
        },
        {
          "internalType": "enum CrowdFunding.STATUS",
          "name": "status",
          "type": "uint8"
        },
        {
          "internalType": "uint256",
          "name": "totalContributions",
          "type": "uint256"
        },
        {
          "internalType": "address[]",
          "name": "contributors",
          "type": "address[]"
        },
        {
          "internalType": "uint256[]",
          "name": "contributionAmounts",
          "type": "uint256[]"
        }
      ],
      "stateMutability": "view",
      "type": "function"
    },
    {
      "inputs": [],
      "name": "getLatestCampaigns",
      "outputs": [
        {
          "components": [
            {
              "internalType": "uint256",
              "name": "id",
              "type": "uint256"
            },
            {
              "internalType": "address",
              "name": "campaignCreator",
              "type": "address"
            },
            {
              "internalType": "string",
              "name": "title",
              "type": "string"
            },
            {
              "internalType": "string",
              "name": "description",
              "type": "string"
            },
            {
              "internalType": "uint256",
              "name": "goal",
              "type": "uint256"
            },
            {
              "internalType": "uint256",
              "name": "startsAt",
              "type": "uint256"
            },
            {
              "internalType": "uint256",
              "name": "endsAt",
              "type": "uint256"
            },
            {
              "internalType": "enum CrowdFunding.STATUS",
              "name": "status",
              "type": "uint8"
            },
            {
              "internalType": "uint256",
              "name": "totalContributions",
              "type": "uint256"
            },
            {
              "internalType": "address[]",
              "name": "contributors",
              "type": "address[]"
            },
            {
              "internalType": "uint256[]",
              "name": "contributionAmounts",
              "type": "uint256[]"
            }
          ],
          "internalType": "struct CrowdFunding.Campaign[]",
          "name": "",
          "type": "tuple[]"
        }
      ],
      "stateMutability": "view",
      "type": "function"
    },
    {
      "inputs": [],
      "name": "owner",
      "outputs": [
        {
          "internalType": "address",
          "name": "",
          "type": "address"
        }
      ],
      "stateMutability": "view",
      "type": "function"
    }
  ],
  "bytecode": "0x60a0604052600160005534801561001557600080fd5b503373ffffffffffffffffffffffffffffffffffffffff1660808173ffffffffffffffffffffffffffffffffffffffff1681525050608051612a726100656000396000610b2c0152612a726000f3fe60806040526004361061007b5760003560e01c80638da5cb5b1161004e5780638da5cb5b14610160578063a318f2691461018b578063b4d40af1146101b4578063c1cbbca7146101df5761007b565b8063141961bc146100805780635598f8cc146100c5578063759701931461010c57806386cdf60414610135575b600080fd5b34801561008c57600080fd5b506100a760048036038101906100a29190611910565b6101fb565b6040516100bc99989796959493929190611a94565b60405180910390f35b3480156100d157600080fd5b506100ec60048036038101906100e79190611910565b610396565b6040516101039b9a99989796959493929190611cab565b60405180910390f35b34801561011857600080fd5b50610133600480360381019061012e9190611910565b610706565b005b34801561014157600080fd5b5061014a6107fd565b604051610157919061206f565b60405180910390f35b34801561016c57600080fd5b50610175610b2a565b6040516101829190612091565b60405180910390f35b34801561019757600080fd5b506101b260048036038101906101ad91906121e1565b610b4e565b005b3480156101c057600080fd5b506101c9610f0c565b6040516101d6919061206f565b60405180910390f35b6101f960048036038101906101f49190611910565b61134a565b005b6001818154811061020b57600080fd5b90600052602060002090600b02016000915090508060000154908060010160009054906101000a900473ffffffffffffffffffffffffffffffffffffffff169080600201805461025a906122af565b80601f0160208091040260200160405190810160405280929190818152602001828054610286906122af565b80156102d35780601f106102a8576101008083540402835291602001916102d3565b820191906000526020600020905b8154815290600101906020018083116102b657829003601f168201915b5050505050908060030180546102e8906122af565b80601f0160208091040260200160405190810160405280929190818152602001828054610314906122af565b80156103615780601f1061033657610100808354040283529160200191610361565b820191906000526020600020905b81548152906001019060200180831161034457829003601f168201915b5050505050908060040154908060050154908060060154908060070160009054906101000a900460ff16908060080154905089565b6000806060806000806000806000606080600060018d815481106103bd576103bc6122e0565b5b90600052602060002090600b020160405180610160016040529081600082015481526020016001820160009054906101000a900473ffffffffffffffffffffffffffffffffffffffff1673ffffffffffffffffffffffffffffffffffffffff1673ffffffffffffffffffffffffffffffffffffffff168152602001600282018054610447906122af565b80601f0160208091040260200160405190810160405280929190818152602001828054610473906122af565b80156104c05780601f10610495576101008083540402835291602001916104c0565b820191906000526020600020905b8154815290600101906020018083116104a357829003601f168201915b505050505081526020016003820180546104d9906122af565b80601f0160208091040260200160405190810160405280929190818152602001828054610505906122af565b80156105525780601f1061052757610100808354040283529160200191610552565b820191906000526020600020905b81548152906001019060200180831161053557829003601f168201915b505050505081526020016004820154815260200160058201548152602001600682015481526020016007820160009054906101000a900460ff16600381111561059e5761059d611a1d565b5b60038111156105b0576105af611a1d565b5b8152602001600882015481526020016009820180548060200260200160405190810160405280929190818152602001828054801561064357602002820191906000526020600020905b8160009054906101000a900473ffffffffffffffffffffffffffffffffffffffff1673ffffffffffffffffffffffffffffffffffffffff16815260200190600101908083116105f9575b50505050508152602001600a820180548060200260200160405190810160405280929190818152602001828054801561069b57602002820191906000526020600020905b815481526020019060010190808311610687575b5050505050815250509050806000015181602001518260400151836060015184608001518560a001518660c001518760e001518861010001518961012001518a61014001519b509b509b509b509b509b509b509b509b509b509b505091939597999b90929496989a50565b60006001828154811061071c5761071b6122e0565b5b90600052602060002090600b020190503373ffffffffffffffffffffffffffffffffffffffff168160010160009054906101000a900473ffffffffffffffffffffffffffffffffffffffff1673ffffffffffffffffffffffffffffffffffffffff161461078857600080fd5b610791826115f8565b60018160070160006101000a81548160ff021916908360038111156107b9576107b8611a1d565b5b0217905550817f3eb1019d4df0cfbf58860f8430c0f74cf19cb395dec54bf46eb7b620bd8c3ca93360016040516107f192919061230f565b60405180910390a25050565b60606001805480602002602001604051908101604052809291908181526020016000905b82821015610b2157838290600052602060002090600b020160405180610160016040529081600082015481526020016001820160009054906101000a900473ffffffffffffffffffffffffffffffffffffffff1673ffffffffffffffffffffffffffffffffffffffff1673ffffffffffffffffffffffffffffffffffffffff1681526020016002820180546108b5906122af565b80601f01602080910402602001604051908101604052809291908181526020018280546108e1906122af565b801561092e5780601f106109035761010080835404028352916020019161092e565b820191906000526020600020905b81548152906001019060200180831161091157829003601f168201915b50505050508152602001600382018054610947906122af565b80601f0160208091040260200160405190810160405280929190818152602001828054610973906122af565b80156109c05780601f10610995576101008083540402835291602001916109c0565b820191906000526020600020905b8154815290600101906020018083116109a357829003601f168201915b505050505081526020016004820154815260200160058201548152602001600682015481526020016007820160009054906101000a900460ff166003811115610a0c57610a0b611a1d565b5b6003811115610a1e57610a1d611a1d565b5b81526020016008820154815260200160098201805480602002602001604051908101604052809291908181526020018280548015610ab157602002820191906000526020600020905b8160009054906101000a900473ffffffffffffffffffffffffffffffffffffffff1673ffffffffffffffffffffffffffffffffffffffff1681526020019060010190808311610a67575b50505050508152602001600a8201805480602002602001604051908101604052809291908181526020018280548015610b0957602002820191906000526020600020905b815481526020019060010190808311610af5575b50505050508152505081526020019060010190610821565b50505050905090565b7f000000000000000000000000000000000000000000000000000000000000000081565b6000845111610b92576040517f08c379a0000000000000000000000000000000000000000000000000000000008152600401610b8990612384565b60405180910390fd5b6000835111610bd6576040517f08c379a0000000000000000000000000000000000000000000000000000000008152600401610bcd906123f0565b60405180910390fd5b60008211610c19576040517f08c379a0000000000000000000000000000000000000000000000000000000008152600401610c109061245c565b60405180910390fd5b428111610c5b576040517f08c379a0000000000000000000000000000000000000000000000000000000008152600401610c52906124ee565b60405180910390fd5b600160405180610160016040528060005481526020013373ffffffffffffffffffffffffffffffffffffffff16815260200186815260200185815260200184815260200142815260200183815260200160006003811115610cbf57610cbe611a1d565b5b815260200160008152602001600067ffffffffffffffff811115610ce657610ce56120b6565b5b604051908082528060200260200182016040528015610d145781602001602082028036833780820191505090505b508152602001600067ffffffffffffffff811115610d3557610d346120b6565b5b604051908082528060200260200182016040528015610d635781602001602082028036833780820191505090505b5081525090806001815401808255809150506001900390600052602060002090600b02016000909190919091506000820151816000015560208201518160010160006101000a81548173ffffffffffffffffffffffffffffffffffffffff021916908373ffffffffffffffffffffffffffffffffffffffff1602179055506040820151816002019081610df691906126ba565b506060820151816003019081610e0c91906126ba565b506080820151816004015560a0820151816005015560c0820151816006015560e08201518160070160006101000a81548160ff02191690836003811115610e5657610e55611a1d565b5b02179055506101008201518160080155610120820151816009019080519060200190610e83929190611750565b5061014082015181600a019080519060200190610ea19291906117da565b5050506001600054610eb391906127bb565b7f80d44ffac60fc8721db9216c79b4b66d26a90f61e2a32290581cbfb9c0776be433866000604051610ee7939291906127ef565b60405180910390a2600080815480929190610f019061282d565b919050555050505050565b6060600060018054905011610f56576040517f08c379a0000000000000000000000000000000000000000000000000000000008152600401610f4d906128c1565b60405180910390fd5b6000600360018054905011610f6c576000610f7f565b6003600180549050610f7e91906127bb565b5b9050600081600180549050610f9491906127bb565b905060008167ffffffffffffffff811115610fb257610fb16120b6565b5b604051908082528060200260200182016040528015610feb57816020015b610fd8611827565b815260200190600190039081610fd05790505b50905060005b82811015611340576001816001808054905061100d91906127bb565b61101791906127bb565b81548110611028576110276122e0565b5b90600052602060002090600b020160405180610160016040529081600082015481526020016001820160009054906101000a900473ffffffffffffffffffffffffffffffffffffffff1673ffffffffffffffffffffffffffffffffffffffff1673ffffffffffffffffffffffffffffffffffffffff1681526020016002820180546110b2906122af565b80601f01602080910402602001604051908101604052809291908181526020018280546110de906122af565b801561112b5780601f106111005761010080835404028352916020019161112b565b820191906000526020600020905b81548152906001019060200180831161110e57829003601f168201915b50505050508152602001600382018054611144906122af565b80601f0160208091040260200160405190810160405280929190818152602001828054611170906122af565b80156111bd5780601f10611192576101008083540402835291602001916111bd565b820191906000526020600020905b8154815290600101906020018083116111a057829003601f168201915b505050505081526020016004820154815260200160058201548152602001600682015481526020016007820160009054906101000a900460ff16600381111561120957611208611a1d565b5b600381111561121b5761121a611a1d565b5b815260200160088201548152602001600982018054806020026020016040519081016040528092919081815260200182805480156112ae57602002820191906000526020600020905b8160009054906101000a900473ffffffffffffffffffffffffffffffffffffffff1673ffffffffffffffffffffffffffffffffffffffff1681526020019060010190808311611264575b50505050508152602001600a820180548060200260200160405190810160405280929190818152602001828054801561130657602002820191906000526020600020905b8154815260200190600101908083116112f2575b505050505081525050828281518110611322576113216122e0565b5b602002602001018190525080806113389061282d565b915050610ff1565b5080935050505090565b600260009054906101000a900460ff161561139a576040517f08c379a00000000000000000000000000000000000000000000000000000000081526004016113919061292d565b60405180910390fd5b6001600260006101000a81548160ff0219169083151502179055506000600182815481106113cb576113ca6122e0565b5b90600052602060002090600b020190506000341161141e576040517f08c379a0000000000000000000000000000000000000000000000000000000008152600401611415906129bf565b60405180910390fd5b60008160080154826004015461143491906127bb565b905080341161145d573482600801600082825461145191906129df565b9250508190555061150e565b6000813461146b91906127bb565b90503373ffffffffffffffffffffffffffffffffffffffff166108fc829081150290604051600060405180830381858888f193505050501580156114b3573d6000803e3d6000fd5b50818360080160008282546114c891906129df565b92505081905550826004015483600801541061150c5760028360070160006101000a81548160ff0219169083600381111561150657611505611a1d565b5b02179055505b505b81600901339080600181540180825580915050600190039060005260206000200160009091909190916101000a81548173ffffffffffffffffffffffffffffffffffffffff021916908373ffffffffffffffffffffffffffffffffffffffff16021790555081600a01349080600181540180825580915050600190039060005260206000200160009091909190915055827f0a4a91237423e0a1766a761c7cb029311d8b95d6b1b81db1b949a70c98b4e08e33346040516115d0929190612a13565b60405180910390a250506000600260006101000a81548160ff02191690831515021790555050565b60006001828154811061160e5761160d6122e0565b5b90600052602060002090600b0201905060005b816009018054905081101561174b576000826009018281548110611648576116476122e0565b5b9060005260206000200160009054906101000a900473ffffffffffffffffffffffffffffffffffffffff169050600083600a01838154811061168d5761168c6122e0565b5b906000526020600020015490508173ffffffffffffffffffffffffffffffffffffffff166108fc829081150290604051600060405180830381858888f193505050501580156116e0573d6000803e3d6000fd5b50808460080160008282546116f591906127bb565b92505081905550847fd8e3c6fa99e763470c20c330c3264b60d68113ff301d4bde289d32ae0b08a303838360405161172e929190612a13565b60405180910390a2505080806117439061282d565b915050611621565b505050565b8280548282559060005260206000209081019282156117c9579160200282015b828111156117c85782518260006101000a81548173ffffffffffffffffffffffffffffffffffffffff021916908373ffffffffffffffffffffffffffffffffffffffff16021790555091602001919060010190611770565b5b5090506117d691906118a9565b5090565b828054828255906000526020600020908101928215611816579160200282015b828111156118155782518255916020019190600101906117fa565b5b50905061182391906118a9565b5090565b60405180610160016040528060008152602001600073ffffffffffffffffffffffffffffffffffffffff16815260200160608152602001606081526020016000815260200160008152602001600081526020016000600381111561188e5761188d611a1d565b5b81526020016000815260200160608152602001606081525090565b5b808211156118c25760008160009055506001016118aa565b5090565b6000604051905090565b600080fd5b600080fd5b6000819050919050565b6118ed816118da565b81146118f857600080fd5b50565b60008135905061190a816118e4565b92915050565b600060208284031215611926576119256118d0565b5b6000611934848285016118fb565b91505092915050565b611946816118da565b82525050565b600073ffffffffffffffffffffffffffffffffffffffff82169050919050565b60006119778261194c565b9050919050565b6119878161196c565b82525050565b600081519050919050565b600082825260208201905092915050565b60005b838110156119c75780820151818401526020810190506119ac565b60008484015250505050565b6000601f19601f8301169050919050565b60006119ef8261198d565b6119f98185611998565b9350611a098185602086016119a9565b611a12816119d3565b840191505092915050565b7f4e487b7100000000000000000000000000000000000000000000000000000000600052602160045260246000fd5b60048110611a5d57611a5c611a1d565b5b50565b6000819050611a6e82611a4c565b919050565b6000611a7e82611a60565b9050919050565b611a8e81611a73565b82525050565b600061012082019050611aaa600083018c61193d565b611ab7602083018b61197e565b8181036040830152611ac9818a6119e4565b90508181036060830152611add81896119e4565b9050611aec608083018861193d565b611af960a083018761193d565b611b0660c083018661193d565b611b1360e0830185611a85565b611b2161010083018461193d565b9a9950505050505050505050565b600081519050919050565b600082825260208201905092915050565b6000819050602082019050919050565b611b648161196c565b82525050565b6000611b768383611b5b565b60208301905092915050565b6000602082019050919050565b6000611b9a82611b2f565b611ba48185611b3a565b9350611baf83611b4b565b8060005b83811015611be0578151611bc78882611b6a565b9750611bd283611b82565b925050600181019050611bb3565b5085935050505092915050565b600081519050919050565b600082825260208201905092915050565b6000819050602082019050919050565b611c22816118da565b82525050565b6000611c348383611c19565b60208301905092915050565b6000602082019050919050565b6000611c5882611bed565b611c628185611bf8565b9350611c6d83611c09565b8060005b83811015611c9e578151611c858882611c28565b9750611c9083611c40565b925050600181019050611c71565b5085935050505092915050565b600061016082019050611cc1600083018e61193d565b611cce602083018d61197e565b8181036040830152611ce0818c6119e4565b90508181036060830152611cf4818b6119e4565b9050611d03608083018a61193d565b611d1060a083018961193d565b611d1d60c083018861193d565b611d2a60e0830187611a85565b611d3861010083018661193d565b818103610120830152611d4b8185611b8f565b9050818103610140830152611d608184611c4d565b90509c9b505050505050505050505050565b600081519050919050565b600082825260208201905092915050565b6000819050602082019050919050565b600082825260208201905092915050565b6000611dba8261198d565b611dc48185611d9e565b9350611dd48185602086016119a9565b611ddd816119d3565b840191505092915050565b611df181611a73565b82525050565b600082825260208201905092915050565b6000611e1382611b2f565b611e1d8185611df7565b9350611e2883611b4b565b8060005b83811015611e59578151611e408882611b6a565b9750611e4b83611b82565b925050600181019050611e2c565b5085935050505092915050565b600082825260208201905092915050565b6000611e8282611bed565b611e8c8185611e66565b9350611e9783611c09565b8060005b83811015611ec8578151611eaf8882611c28565b9750611eba83611c40565b925050600181019050611e9b565b5085935050505092915050565b600061016083016000830151611eee6000860182611c19565b506020830151611f016020860182611b5b565b5060408301518482036040860152611f198282611daf565b91505060608301518482036060860152611f338282611daf565b9150506080830151611f486080860182611c19565b5060a0830151611f5b60a0860182611c19565b5060c0830151611f6e60c0860182611c19565b5060e0830151611f8160e0860182611de8565b50610100830151611f96610100860182611c19565b50610120830151848203610120860152611fb08282611e08565b915050610140830151848203610140860152611fcc8282611e77565b9150508091505092915050565b6000611fe58383611ed5565b905092915050565b6000602082019050919050565b600061200582611d72565b61200f8185611d7d565b93508360208202850161202185611d8e565b8060005b8581101561205d578484038952815161203e8582611fd9565b945061204983611fed565b925060208a01995050600181019050612025565b50829750879550505050505092915050565b600060208201905081810360008301526120898184611ffa565b905092915050565b60006020820190506120a6600083018461197e565b92915050565b600080fd5b600080fd5b7f4e487b7100000000000000000000000000000000000000000000000000000000600052604160045260246000fd5b6120ee826119d3565b810181811067ffffffffffffffff8211171561210d5761210c6120b6565b5b80604052505050565b60006121206118c6565b905061212c82826120e5565b919050565b600067ffffffffffffffff82111561214c5761214b6120b6565b5b612155826119d3565b9050602081019050919050565b82818337600083830152505050565b600061218461217f84612131565b612116565b9050828152602081018484840111156121a05761219f6120b1565b5b6121ab848285612162565b509392505050565b600082601f8301126121c8576121c76120ac565b5b81356121d8848260208601612171565b91505092915050565b600080600080608085870312156121fb576121fa6118d0565b5b600085013567ffffffffffffffff811115612219576122186118d5565b5b612225878288016121b3565b945050602085013567ffffffffffffffff811115612246576122456118d5565b5b612252878288016121b3565b9350506040612263878288016118fb565b9250506060612274878288016118fb565b91505092959194509250565b7f4e487b7100000000000000000000000000000000000000000000000000000000600052602260045260246000fd5b600060028204905060018216806122c757607f821691505b6020821081036122da576122d9612280565b5b50919050565b7f4e487b7100000000000000000000000000000000000000000000000000000000600052603260045260246000fd5b6000604082019050612324600083018561197e565b6123316020830184611a85565b9392505050565b7f5469746c65206d757374206e6f7420626520656d707479000000000000000000600082015250565b600061236e601783611998565b915061237982612338565b602082019050919050565b6000602082019050818103600083015261239d81612361565b9050919050565b7f4465736372697074696f6e206d757374206e6f7420626520656d707479000000600082015250565b60006123da601d83611998565b91506123e5826123a4565b602082019050919050565b60006020820190508181036000830152612409816123cd565b9050919050565b7f476f616c206d7573742062652067726561746572207468616e207a65726f0000600082015250565b6000612446601e83611998565b915061245182612410565b602082019050919050565b6000602082019050818103600083015261247581612439565b9050919050565b7f456e64732074696d65206d7573742062652067726561746572207468616e207460008201527f68652063757272656e742074696d650000000000000000000000000000000000602082015250565b60006124d8602f83611998565b91506124e38261247c565b604082019050919050565b60006020820190508181036000830152612507816124cb565b9050919050565b60008190508160005260206000209050919050565b60006020601f8301049050919050565b600082821b905092915050565b6000600883026125707fffffffffffffffffffffffffffffffffffffffffffffffffffffffffffffffff82612533565b61257a8683612533565b95508019841693508086168417925050509392505050565b6000819050919050565b60006125b76125b26125ad846118da565b612592565b6118da565b9050919050565b6000819050919050565b6125d18361259c565b6125e56125dd826125be565b848454612540565b825550505050565b600090565b6125fa6125ed565b6126058184846125c8565b505050565b5b818110156126295761261e6000826125f2565b60018101905061260b565b5050565b601f82111561266e5761263f8161250e565b61264884612523565b81016020851015612657578190505b61266b61266385612523565b83018261260a565b50505b505050565b600082821c905092915050565b600061269160001984600802612673565b1980831691505092915050565b60006126aa8383612680565b9150826002028217905092915050565b6126c38261198d565b67ffffffffffffffff8111156126dc576126db6120b6565b5b6126e682546122af565b6126f182828561262d565b600060209050601f8311600181146127245760008415612712578287015190505b61271c858261269e565b865550612784565b601f1984166127328661250e565b60005b8281101561275a57848901518255600182019150602085019450602081019050612735565b868310156127775784890151612773601f891682612680565b8355505b6001600288020188555050505b505050505050565b7f4e487b7100000000000000000000000000000000000000000000000000000000600052601160045260246000fd5b60006127c6826118da565b91506127d1836118da565b92508282039050818111156127e9576127e861278c565b5b92915050565b6000606082019050612804600083018661197e565b818103602083015261281681856119e4565b90506128256040830184611a85565b949350505050565b6000612838826118da565b91507fffffffffffffffffffffffffffffffffffffffffffffffffffffffffffffffff820361286a5761286961278c565b5b600182019050919050565b7f4e6f2063616d706169676e7320666f756e642e00000000000000000000000000600082015250565b60006128ab601383611998565b91506128b682612875565b602082019050919050565b600060208201905081810360008301526128da8161289e565b9050919050565b7f5265656e7472616e742063616c6c000000000000000000000000000000000000600082015250565b6000612917600e83611998565b9150612922826128e1565b602082019050919050565b600060208201905081810360008301526129468161290a565b9050919050565b7f436f6e747269627574696f6e20616d6f756e74206d757374206265206772656160008201527f746572207468616e207a65726f00000000000000000000000000000000000000602082015250565b60006129a9602d83611998565b91506129b48261294d565b604082019050919050565b600060208201905081810360008301526129d88161299c565b9050919050565b60006129ea826118da565b91506129f5836118da565b9250828201905080821115612a0d57612a0c61278c565b5b92915050565b6000604082019050612a28600083018561197e565b612a35602083018461193d565b939250505056fea2646970667358221220380d398287514adcb2fc106f64d4f592534d441252d54f3759ab9887a1f9bffe64736f6c63430008130033",
  "linkReferences": {},
  "deployedLinkReferences": {}
}